:100000005CC0000081C000007FC000007DC0000017
:100010007BC0000079C0000077C0000075C0000000
:1000200073C0000071C000006FC000006DC0000010
:100030006BC00000BFC2000067C0000065C00000C8
:1000400060C6000061C000000C94DD080C940F092C
:100050005BC0000059C0000057C0000055C0000040
:1000600053C0000051C00000000000080002010061
:100070000003040700000000000000000102040863
:100080001020408001020408102001020408102002
:10009000040404040404040402020202020203032E
:1000A0000303030300000000250028002B000000CC
:1000B0000000240027002A00340911241FBECFEFBE
:1000C000D8E0DEBFCDBF11E0A0E0B1E0E0E7F3E1B2
:1000D00002C005900D92AA33B107D9F722E0AAE336
:1000E000B1E001C01D92A034B207E1F710E0CDE508
:1000F000D0E004C02197FE010E94B009CC35D107A1
:10010000C9F7F4D20C94B6097BCFCF93DF93882341
:1001100041F0EB0181507AD699838883DF91CF91AA
:100120000895FB0111821082F9CF0F931F938B0169
:100130009C0183E036952795179507958A95D1F709
:10014000065C1E4F462F477021E030E0F90102C0E7
:10015000EE0FFF1F4A95E2F7AF01F801208124233B
:10016000CB010196211102C090E080E01F910F9118
:1001700008950F931F938B019C0183E0369527957B
:10018000179507958A95D1F7677081E090E001C0D7
:10019000880F6A95EAF7F801E65CFE4F2081452B4F
:1001A00031F48095822380831F910F910895822BD3
:1001B000FACFCF92DF92EF92FF92CF93DF936B0152
:1001C0007C0160E08EE0C816D104E104F10488F4FB
:1001D0008EE08C0D5FD6E6012196AE01C701B60117
:1001E000C8DFCE01DF91CF91FF90EF90DF90CF90ED
:1001F00008958C2DEFCF882341F08150682F70E057
:1002000090E080E050E040E0B4CF0895611101C07B
:1002100041C66130E9F362E0FBCF662311F061E093
:1002200075C660E0FDCFFC0191E04091490150911D
:100230004A0160914B0170914C01452B462B472B95
:1002400009F090E091830895CF92DF92EF92FF92B0
:100250000F931F93CF93DF9300D000D000D0CDB782
:10026000DEB78091490190914A01A0914B01B09174
:100270004C010196A11DB11D85309105A105B10567
:1002800008F0A1C08093490190934A01A0934B01CB
:10029000B0934C01C0900001D0900101E0900201A8
:1002A000F0900301A701960160910D0270910E027A
:1002B00080910F029091100207D4882341F0C092E0
:1002C0000D02D0920E02E0920F02F09210026EE048
:1002D00070E080E090E029DF90930C0280930B02A5
:1002E00043E050E0BE016B5F7F4F0FDF6D817E8189
:1002F00090E080E0EDD32091080130910901409118
:100300000A0150910B019AD420910C0130910D01FA
:1003100040910E0150910F0191D469837A838B83B0
:100320009C83C0900401D0900501E0900601F090FC
:100330000701A7019601609101027091020280916C
:10034000030290910402C0D3882341F0C0920102BD
:10035000D0920202E0920302F09204026FE070E099
:1003600080E090E0E2DE909300028093FF0143E0A2
:1003700050E0BE016B5F7F4FC8DE02E312E02DE369
:1003800032E04CE352E06BE372E0CE010196F3D130
:1003900060913B028BE041DF60913C0282E03DDFF7
:1003A00060913D0287E039DF26960FB6F894DEBFF4
:1003B0000FBECDBFDF91CF911F910F91FF90EF90B6
:1003C000DF90CF9008951092490110924A01109247
:1003D0004B0110924C015ECF61E08091310281119E
:1003E00060E0609331028DE018CFAF92BF92CF9260
:1003F000DF92EF92FF921F93CF93DF9369E372E056
:1004000083E491E0F8D2C9EFD1E080E0A82E81E04A
:10041000B82EF501848D88AF82E392E09ED11C86D0
:10042000F50180819181A281B3818C8B9D8BAE8BF4
:10043000BF8B198AC12CD12C7601C394CD86DE8660
:10044000EF86F88A6EE070E080E090E0B2DE9B8B91
:100450008A8B11E0198B1882F50184819581A68120
:10046000B78188879987AA87BB871D82C982DA826C
:10047000EB82FC826FE070E080E090E09ADE9F8388
:100480008E831D8318AAC9AADAAAEBAAFCAA61E086
:100490008BE0BCDE1DAB18A6C9A6DAA6EBA6FCA6AF
:1004A00061E082E0B3DE1DA718A2C9A2DAA2EBA226
:1004B000FCA261E087E0AADE1DA3188EC98EDA8E49
:1004C000EB8EFC8E61E08DE0A1DE1D8FDF91CF9180
:1004D0001F91FF90EF90DF90CF90BF90AF90089565
:1004E0008091050281111DC081E0809305028091F9
:1004F000060290910702A0910802B09109020197AB
:10050000A105B10571F480910A02882351F06EE0D3
:1005100070E080E090E009DE90930C0280930B0283
:100520006ADE8091F90181111DC081E08093F9019B
:100530008091FA019091FB01A091FC01B091FD0125
:100540000197A105B10571F48091FE01882351F056
:100550006FE070E080E090E0E8DD9093000280932F
:10056000FF0149DE80912902811103C081E080935F
:10057000290280912102811103C081E08093210230
:1005800080911902811103C081E08093190280914A
:100590001102811103C081E080931102089540E8A7
:1005A00055E260E070E090E080E000C026E08CE57D
:1005B00091E0A3C51F920F920FB60F9211242F93B3
:1005C0003F934F935F936F937F938F939F93AF93DB
:1005D000BF93EF93FF9386E997EE90938500809306
:1005E000840032D0FF91EF91BF91AF919F918F9195
:1005F0007F916F915F914F913F912F910F900FBE1F
:100600000F901F90189586E997EE90938500809340
:100610008400AFE6B0E08C918E7F8C93E0E8F0E050
:1006200080818C7F8083E1E8F0E08081877E808319
:1006300080818460808380818C7F80838C918160C5
:100640008C93089581E00895CF93DF9300D0CDB7C8
:10065000DEB780914F0191E0980F90934F0188236E
:1006600069F021E030E030935201209351018093F2
:100670004F010F900F90DF91CF910895CE01019619
:10068000D2DD7894E1DDF89480914F018150809320
:100690004F018A81882389F080914E0191E0980F63
:1006A00090934E01882349F021E030E030935201CD
:1006B0002093510180934E01DCCF80914E0188231D
:1006C000C1F2809150018111D4CF81E0809350011B
:1006D000789482DEF89480914E01815080934E018F
:1006E00080915001815080935001C3CFCF93DF930D
:1006F00010923F0210923E024ED351DFC09126016C
:10070000D09127011982188270DEF8947CDF81E095
:1007100028813981232B09F080E080933E02789470
:10072000789480913E02811107C0DADEF89490E05F
:1007300080E0DF91CF91089581E028813981232BDA
:1007400009F480E080933F0290913F0281E0911193
:1007500080E080933E0276DFE4CF40911D0150910E
:100760001E0160911F0170912001FC0140835183A3
:100770006283738308952F923F924F925F926F929C
:100780007F928F929F92AF92BF92CF92DF92EF9221
:10079000FF920F931F93CF93DF93CDB7DEB72897C8
:1007A0000FB6F894DEBF0FBECDBF9E838D831B01B5
:1007B0005A8349833C832B8318870F83FC01C080B5
:1007C000D180E280F380209121013091220140917B
:1007D000230150912401C701B60130D22B013C0105
:1007E000F801848181112EC081E0848383E08583B8
:1007F000EB81FC811082E981FA81108282E0F801AC
:100800008683F1011082EF81F885408251826282F5
:10081000738228960FB6F894DEBF0FBECDBFDF916E
:10082000CF911F910F91FF90EF90DF90CF90BF90ED
:10083000AF909F908F907F906F905F904F903F9080
:100840002F900895EF81F885208131814281538175
:10085000C301B201D4D04B015C01EF81F8858581E1
:100860008130F1F0823009F472C020E030E0A9015B
:10087000C501B40129D187FF40C020E030E046E146
:1008800053E4C701B60120D187FD92C020E030E0DB
:100890004FE253E4C701B60117D187FD16C02DC042
:1008A00020E030E0A901C501B401C4D118164CF410
:1008B00020E030E04BE153E4C701B601BBD118168C
:1008C00024F0F1018081823029F482E0EF81F88503
:1008D000858313C020E030E044E353E4C701B60150
:1008E000A9D118167CF583E0EF81F8858583EB812B
:1008F000FC811082E981FA811082EF81F88586817E
:10090000F101813009F056C08083ED81FE81C08005
:10091000D180E280F38020E030E042E053E4C70180
:10092000B60188D187FD6FCF20E030E04EE353E47D
:10093000C701B601C9D018160CF465CF82E0EF816B
:10094000F8855ECF81E0EB81FC818083D3CF20E00E
:1009500030E0A901C501B4016DD1181654F420E0AE
:1009600030E044E353E4C701B60164D118160CF437
:10097000BACFF101108120E030E0A901C501B40136
:10098000A3D087FF13C020E030E046E153E4C70165
:10099000B6019AD087FF0AC0123051F4EB81FC8176
:1009A000108281E0E981FA818083A7CF1130B1F70D
:1009B00081E08CCF1082ED81FE81C080D180E28009
:1009C000F38020E030E042E053E4C701B6017CD080
:1009D00087FD0AC020E030E04EE353E4C701B601D2
:1009E00029D118160CF00FCF81E0EF81F8858683AE
:1009F000F101808308CFFB019183808308955058D3
:100A0000BB27AA270ED0DCC0CDD030F0D2D020F04A
:100A100031F49F3F11F41EF4C2C00EF4E095E7FBE1
:100A2000B8C0E92FDED080F3BA17620773078407D6
:100A3000950718F071F49EF5F6C00EF4E0950B2EB4
:100A4000BA2FA02D0B01B90190010C01CA01A00120
:100A50001124FF27591B99F0593F50F4503E68F17B
:100A60001A16F040A22F232F342F4427585FF3CFBC
:100A7000469537952795A795F0405395C9F77EF48D
:100A80001F16BA0B620B730B840BBAF09150A1F0D6
:100A9000FF0FBB1F661F771F881FC2F70EC0BA0F5C
:100AA000621F731F841F48F4879577956795B795E4
:100AB000F7959E3F08F0B3CF9395880F08F09927DC
:100AC000EE0F97958795089540D008F481E008953A
:100AD000E89409C097FB3EF49095809570956195D8
:100AE0007F4F8F4F9F4F9923A9F0F92F96E9BB278E
:100AF0009395F695879577956795B795F111F8CF0A
:100B0000FAF4BB0F11F460FF1BC06F5F7F4F8F4F74
:100B10009F4F16C0882311F096E911C0772321F06A
:100B20009EE8872F762F05C0662371F096E8862F02
:100B300070E060E02AF09A95660F771F881FDAF759
:100B4000880F9695879597F90895990F0008550F86
:100B5000AA0BE0E8FEEF16161706E807F907C0F043
:100B600012161306E407F50798F0621B730B840B4B
:100B7000950B39F40A2661F0232B242B252B21F425
:100B800008950A2609F4A140A6958FEF811D811DC5
:100B9000089597F99F6780E870E060E008959FEFFF
:100BA00080EC089500240A94161617061806090604
:100BB000089500240A9412161306140605060895D3
:100BC000092E0394000C11F4882352F0BB0F40F45B
:100BD000BF2B11F460FF04C06F5F7F4F8F4F9F4F9B
:100BE000089557FD9058440F551F59F05F3F71F01D
:100BF0004795880F97FB991F61F09F3F79F0879584
:100C00000895121613061406551FF2CF4695F1DF0C
:100C100008C0161617061806991FF1CF869571059C
:100C2000610508940895E894BB2766277727CB01D0
:100C300097F908958ADF08F48FEF08950BD0C0CF9D
:100C4000B1DF28F0B6DF18F0952309F0A2CFA7CFC7
:100C50001124EACFC6DFA0F3959FD1F3950F50E0A2
:100C6000551F629FF001729FBB27F00DB11D639F5E
:100C7000AA27F00DB11DAA1F649F6627B00DA11D04
:100C8000661F829F2227B00DA11D621F739FB00DAA
:100C9000A11D621F839FA00D611D221F749F33271A
:100CA000A00D611D231F849F600D211D822F762FB3
:100CB0006A2F11249F5750408AF0E1F088234AF0B0
:100CC000EE0FFF1FBB1F661F771F881F91505040FC
:100CD000A9F79E3F510570F05CCFA6CF5F3FECF3C4
:100CE000983EDCF3869577956795B795F795E795E8
:100CF0009F5FC1F7FE2B880F911D9695879597F9F9
:100D000008951F920F920FB60F9211242F933F93C5
:100D10008F939F93AF93BF9380915401909155010E
:100D2000A0915601B09157013091530123E0230F58
:100D30002D3758F50196A11DB11D209353018093C5
:100D4000540190935501A0935601B093570180919F
:100D5000580190915901A0915A01B0915B010196FF
:100D6000A11DB11D8093580190935901A0935A0180
:100D7000B0935B01BF91AF919F918F913F912F9164
:100D80000F900FBE0F901F90189526E8230F029624
:100D9000A11DB11DD2CF789484B5826084BD84B585
:100DA000816084BD85B5826085BD85B5816085BD66
:100DB000EEE6F0E0808181608083E1E8F0E010827F
:100DC000808182608083808181608083E0E8F0E0C0
:100DD000808181608083E1EBF0E0808184608083AA
:100DE000E0EBF0E0808181608083EAE7F0E08081E1
:100DF0008460808380818260808380818160808341
:100E00008081806880831092C10008958E3008F040
:100E10008E502091250190E4299F90011124877024
:100E2000822B80937C0080917A00806480937A008A
:100E300080917A0086FDFCCF8091780090917900B6
:100E40000895833081F028F4813099F08230A9F040
:100E500008958730A9F08830C9F08430B1F48091CA
:100E600080008F7D03C0809180008F778093800009
:100E7000089584B58F7784BD089584B58F7DFBCFA9
:100E80008091B0008F778093B00008958091B0007A
:100E90008F7DF9CFCF93DF9390E0FC01E458FF4FB3
:100EA000249180579F4FFC0184918823C9F090E0E2
:100EB000880F991FFC01E255FF4FA591B491FC01E9
:100EC000EC55FF4FC591D49161110DC09FB7F894B7
:100ED0008C91209582238C938881282328839FBF1F
:100EE000DF91CF910895623051F49FB7F8943C910F
:100EF000822F809583238C93E8812E2BEFCF8FB7A1
:100F0000F894EC912E2B2C938FBFEACF1F93CF93A5
:100F1000DF93282F30E0F901E859FF4F8491F90160
:100F2000E458FF4FD491F901E057FF4FC491CC230F
:100F3000A1F0162F811185DFEC2FF0E0EE0FFF1FDF
:100F4000EC55FF4FA591B4918FB7F894EC91111126
:100F500008C0D095DE23DC938FBFDF91CF911F9126
:100F60000895DE2BF8CFFC01918D228D892F90E022
:100F7000805C9F4F821B91098F7399270895FC0114
:100F8000918D828D981731F0828DE80FF11D858D3E
:100F900090E008958FEF9FEF0895FC01918D828D71
:100FA000981761F0A28DAE0FBF2FB11D5D968C9189
:100FB000928D9F5F9F73928F90E008958FEF9FEFC8
:100FC0000895FC01538D448D252F30E0842F90E04F
:100FD000821B930B541710F0CF9608950197089534
:100FE000FC01A48DA80FB92FB11DA35ABF4F2C919E
:100FF000848D90E001968F739927848FA689B78995
:101000002C93A089B1898C91837080648C93938D8B
:10101000848D981306C00288F389E02D80818F7D2E
:1010200080830895CF93DF93EC01888D8823B1F0FE
:10103000AA89BB89E889F9898C9185FD03C08081E3
:1010400086FD0CC00FB607FCF7CF8C9185FFF2CF61
:10105000808185FFEDCFCE01C3DFEACFDF91CF9155
:101060000895EF92FF920F931F93CF93DF93EC01BC
:1010700081E0888F9B8D8C8D98131AC0E889F9893F
:10108000808185FF15C09FB7F894EE89FF89608342
:10109000E889F98980818370806480839FBF81E0C3
:1010A00090E0DF91CF911F910F91FF90EF90089505
:1010B000F62E0B8D10E00F5F1F4F0F731127E02EE0
:1010C0008C8D8E110BC00FB607FCFACFE889F98919
:1010D000808185FFF5CFCE0183DFF2CFEB8DEC0F62
:1010E000FD2FF11DE35AFF4FF0829FB7F8940B8F4D
:1010F000EA89FB8980818062D0CFCF92DF92EF9224
:10110000FF921F93CF93DF93EC016A017B01122FB3
:10111000E889F98982E08083C11481EED806E10470
:10112000F10499F060E079E08DE390E0A701960189
:10113000F5D0215031094109510956954795379508
:101140002795211580E1380790F0E889F989108208
:1011500060E874E88EE190E0A7019601DFD02150AD
:101160003109410951095695479537952795EC85E1
:10117000FD853083EE85FF852083188EEC89FD89FF
:101180001083EA89FB89808180618083EA89FB89F9
:10119000808188608083EA89FB8980818068808380
:1011A000EA89FB8980818F7D8083DF91CF911F91B8
:1011B000FF90EF90DF90CF9008951F920F920FB69F
:1011C0000F9211242F938F939F93EF93FF93E091AE
:1011D0006C01F0916D018081E0917201F0917301D9
:1011E00082FD1BC09081809175018F5F8F7320916C
:1011F0007601821741F0E0917501F0E0E45AFE4F6C
:10120000958F80937501FF91EF919F918F912F9111
:101210000F900FBE0F901F9018958081F4CF1F92F2
:101220000F920FB60F9211242F933F934F935F931A
:101230006F937F938F939F93AF93BF93EF93FF939E
:101240008CE591E0CDDEFF91EF91BF91AF919F9141
:101250008F917F916F915F914F913F912F910F905F
:101260000FBE0F901F901895ECE5F1E013821282EB
:1012700088EE93E0A0E0B0E084839583A683B783F3
:101280008CE291E09183808385EC90E09587848760
:1012900084EC90E09787868780EC90E0918B808B40
:1012A00081EC90E0938B828B82EC90E0958B848B29
:1012B00086EC90E0978B868B118E128E138E148E97
:1012C0000895AF92BF92CF92DF92EF92FF920F9369
:1012D0001F93CF93DF936C017B018B01040F151FCC
:1012E000EB015E01AE18BF08C017D10759F0699134
:1012F000D601ED91FC910190F081E02DC601099598
:10130000892B79F7C501DF91CF911F910F91FF9044
:10131000EF90DF90CF90BF90AF900895A1E21A2E8A
:10132000AA1BBB1BFD010DC0AA1FBB1FEE1FFF1F89
:10133000A217B307E407F50720F0A21BB30BE40BD9
:10134000F50B661F771F881F991F1A9469F7609520
:101350007095809590959B01AC01BD01CF010895DA
:10136000EE0FFF1F0590F491E02D0994F894FFCF44
:10137000000080BF000080BF0A28A03B0000204280
:101380000A28A03BCDCC4C3F000080BF00000000ED
:101390000000002041014301000000003108610904
:0A13A000E1071208B307CD07BF07ED
:00000001FF
