:1000000034C0000057C0000055C0000053C00000BD
:1000100051C000004FC000004DC000004BC00000A8
:1000200049C0000047C0000045C0000043C00000B8
:1000300041C00000BFC100003DC000003BC0000047
:1000400097C3000037C0000042C5000072C5000021
:1000500031C000002FC000002DC000002BC00000E8
:1000600029C0000027C00000BE0511241FBECFEF2D
:10007000D8E0DEBFCDBF11E0A0E0B1E0E4E8FCE0F5
:1000800002C005900D92A432B107D9F721E0A4E295
:10009000B1E001C01D92A43FB207E1F710E0C5E353
:1000A000D0E003C02197FE01E5D5C433D107D1F7D5
:1000B000E3D1E6C5A5CF4F925F926F927F928F9268
:1000C0009F92AF92BF92CF92DF92EF92FF92CF9327
:1000D0004090EB015090EC016090ED017090EE01CA
:1000E00020910C0130910D0140910E0150910F01B2
:1000F000C301B201DAD26B017C018090CF019090F4
:10010000D001A090D101B090D2018091DF01811186
:1001100018C081E08093DF018093E0011092F0012C
:1001200092E09093E2011092E40193E09093E10158
:100130001092E5011092F1011092E6018093E30123
:10014000C3C02091D3013091D4014091D501509189
:10015000D601C701B601C7D1A5019401A6D2C091AD
:10016000E001C13009F049C01092F00120E030E018
:10017000A9011ED287FF09C08091E601811105C047
:1001800082E08093E001C093F0018091E201813030
:1001900061F0823009F051C08091F101813029F085
:1001A000823009F03EC01092E4016091E701709145
:1001B000E8018091E9019091EA012091E10121306B
:1001C00009F46EC0223009F0B5C02091D7013091FA
:1001D000D8014091D9015091DA0185D19F772FE75D
:1001E0003AE64CEB5CE35DD218160CF04DC083E0B0
:1001F0008093E1011092E50153C021E02093F001CA
:1002000020E030E0A9014DD218162CF08091E601D3
:10021000882309F4BACF81E08093E0011092F001C5
:10022000B4CF4092DB015092DC016092DD0170920C
:10023000DE0183E08093E201B8CF2091DB013091B1
:10024000DC014091DD015091DE01C301B2014BD1CF
:100250009F7727E137EB41E559E323D2181624F4C1
:1002600082E08093E2019FCF8091E401853140F0EC
:1002700081E08093F1018093E2018093E60195CFC4
:100280008F5F8093E401D5CF8091E501853108F43B
:100290004DC081E08093F1018093E1018093E601FC
:1002A0008091EF019091E301913009F057C08823CC
:1002B00059F08091F101813039F082E08093F101B1
:1002C0008093E3019093E6012091E7013091E801EA
:1002D0004091E9015091EA0160910401709105019A
:1002E0008091060190910701E0D1A5019401FCD015
:1002F0006093CF017093D0018093D1019093D2018C
:10030000C092D301D092D401E092D501F092D601EF
:10031000CF91FF90EF90DF90CF90BF90AF909F90E4
:100320008F907F906F905F904F9008958F5F809334
:10033000E501B6CF2091F101213009F4B1CF22308F
:1003400009F455CF6093D7017093D8018093D901F8
:100350009093DA0182E08093E101A2CF8111B4CFC2
:100360001092E6011092F10181E0E8CEEFECF1E0AD
:10037000A0E0B1E018964D915D916D917C911B9735
:1003800040835183628373838D919D910D90BC91C5
:10039000A02D84839583A683B7830895089540E8AC
:1003A00055E260E070E090E080E000C026E082E38B
:1003B00091E02DC31F920F920FB60F9211242F932D
:1003C0003F934F935F936F937F938F939F93AF93DD
:1003D000BF93EF93FF9386E09FEF90938500809308
:1003E000840032D0FF91EF91BF91AF919F918F9197
:1003F0007F916F915F914F913F912F910F900FBE21
:100400000F901F90189586E09FEF90938500809342
:100410008400AFE6B0E08C918E7F8C93E0E8F0E052
:1004200080818C7F8083E1E8F0E08081877E80831B
:1004300080818360808380818B7F80838C918160C9
:100440008C93089581E008958091260191E0980FA2
:1004500090932601882349F021E030E03093280171
:1004600020932701809326010895789424DEF89440
:10047000809126018150F6CFCF93DF931092F30144
:100480001092F201BFD18BDFC0911001D091110108
:10049000198218826BDFF894B6DF2881398181E0F8
:1004A000232B09F080E08093F20178947894809176
:1004B000F201811107C072DFF89490E080E0DF91D3
:1004C000CF9108952881398181E0232B09F480E0C0
:1004D0008093F3019091F30181E0911180E080938A
:1004E000F201B0DFE4CF5058BB27AA270ED09FC03F
:1004F00090D030F095D020F031F49F3F11F41EF4ED
:1005000085C00EF4E095E7FB7BC0E92FA1D080F316
:10051000BA17620773078407950718F071F49EF500
:10052000B9C00EF4E0950B2EBA2FA02D0B01B90126
:1005300090010C01CA01A0011124FF27591B99F059
:10054000593F50F4503E68F11A16F040A22F232F65
:10055000342F4427585FF3CF469537952795A795B5
:10056000F0405395C9F77EF41F16BA0B620B730B5C
:10057000840BBAF09150A1F0FF0FBB1F661F771FCD
:10058000881FC2F70EC0BA0F621F731F841F48F482
:10059000879577956795B795F7959E3F08F0B3CF08
:1005A0009395880F08F09927EE0F979587950895F2
:1005B00003D008F481E00895990F0008550FAA0BA5
:1005C000E0E8FEEF16161706E807F907C0F0121666
:1005D0001306E407F50798F0621B730B840B950B69
:1005E00039F40A2661F0232B242B252B21F40895BE
:1005F0000A2609F4A140A6958FEF811D811D08955B
:1006000097F99F6780E870E060E008959FEF80ECC5
:10061000089500240A941616170618060906089568
:1006200000240A9412161306140605060895092ECE
:100630000394000C11F4882352F0BB0F40F4BF2B3D
:1006400011F460FF04C06F5F7F4F8F4F9F4F08957D
:1006500057FD9058440F551F59F05F3F71F0479573
:10066000880F97FB991F61F09F3F79F08795089558
:10067000121613061406551FF2CF4695F1DF08C077
:10068000161617061806991FF1CF86957105610594
:1006900008940895E894BB2766277727CB0197F93C
:1006A00008958ADF08F48FEF08950BD0C0CFB1DF33
:1006B00028F0B6DF18F0952309F0A2CFA7CF1124B8
:1006C000EACFC6DFA0F3959FD1F3950F50E0551FF9
:1006D000629FF001729FBB27F00DB11D639FAA2797
:1006E000F00DB11DAA1F649F6627B00DA11D661FE6
:1006F000829F2227B00DA11D621F739FB00DA11D07
:10070000621F839FA00D611D221F749F3327A00DC0
:10071000611D231F849F600D211D822F762F6A2F5C
:1007200011249F5750408AF0E1F088234AF0EE0FE1
:10073000FF1FBB1F661F771F881F91505040A9F7EE
:100740009E3F510570F05CCFA6CF5F3FECF3983E23
:10075000DCF3869577956795B795F795E7959F5F55
:10076000C1F7FE2B880F911D9695879597F90895EF
:100770001F920F920FB60F9211242F933F938F93D6
:100780009F93AF93BF9380912A0190912B01A091E9
:100790002C01B0912D013091290123E0230F2D3739
:1007A00058F50196A11DB11D2093290180932A01BE
:1007B00090932B01A0932C01B0932D0180912E01D9
:1007C00090912F01A0913001B09131010196A11DAE
:1007D000B11D80932E0190932F01A0933001B0930F
:1007E0003101BF91AF919F918F913F912F910F90C8
:1007F0000FBE0F901F90189526E8230F0296A11D9B
:10080000B11DD2CF789484B5826084BD84B58160F7
:1008100084BD85B5826085BD85B5816085BDEEE608
:10082000F0E0808181608083E1E8F0E010828081E7
:1008300082608083808181608083E0E8F0E0808155
:1008400081608083E1EBF0E0808184608083E0EB75
:10085000F0E0808181608083EAE7F0E0808184605D
:1008600080838081826080838081816080838081B9
:10087000806880831092C1000895FC01918D228DC3
:10088000892F90E0805C9F4F821B91098F7399277D
:100890000895FC01918D828D981731F0828DE80FBB
:1008A000F11D858D90E008958FEF9FEF0895FC0175
:1008B000918D828D981761F0A28DAE0FBF2FB11D63
:1008C0005D968C91928D9F5F9F73928F90E00895BB
:1008D0008FEF9FEF0895FC01538D448D252F30E05D
:1008E000842F90E0821B930B541710F0CF9608953D
:1008F00001970895FC01A48DA80FB92FB11DA35A2B
:10090000BF4F2C91848D90E001968F739927848F2F
:10091000A689B7892C93A089B1898C918370806452
:100920008C93938D848D981306C00288F389E02DF3
:1009300080818F7D80830895CF93DF93EC01888D34
:100940008823B1F0AA89BB89E889F9898C9185FD52
:1009500003C0808186FD0CC00FB607FCF7CF8C91D9
:1009600085FFF2CF808185FFEDCFCE01C3DFEACFD7
:10097000DF91CF910895EF92FF920F931F93CF9342
:10098000DF93EC0181E0888F9B8D8C8D98131AC0CA
:10099000E889F989808185FF15C09FB7F894EE89B1
:1009A000FF896083E889F98980818370806480830E
:1009B0009FBF81E090E0DF91CF911F910F91FF9059
:1009C000EF900895F62E0B8D10E00F5F1F4F0F7301
:1009D0001127E02E8C8D8E110BC00FB607FCFACFBD
:1009E000E889F989808185FFF5CFCE0183DFF2CFD9
:1009F000EB8DEC0FFD2FF11DE35AFF4FF0829FB7F7
:100A0000F8940B8FEA89FB8980818062D0CFCF92E6
:100A1000DF92EF92FF921F93CF93DF93EC016A0175
:100A20007B01122FE889F98982E08083C11481EE6D
:100A3000D806E104F10499F060E079E08DE390E0FC
:100A4000A7019601F5D02150310941095109569568
:100A5000479537952795211580E1380790F0E8896B
:100A6000F989108260E874E88EE190E0A7019601B0
:100A7000DFD02150310941095109569547953795E5
:100A80002795EC85FD853083EE85FF852083188EC4
:100A9000EC89FD891083EA89FB89808180618083EC
:100AA000EA89FB89808188608083EA89FB8980816B
:100AB00080688083EA89FB8980818F7D8083DF91D4
:100AC000CF911F91FF90EF90DF90CF9008951F92EC
:100AD0000F920FB60F9211242F938F939F93EF9342
:100AE000FF93E0914201F09143018081E091480140
:100AF000F091490182FD1BC0908180914B018F5F75
:100B00008F7320914C01821741F0E0914B01F0E08E
:100B1000EE5CFE4F958F80934B01FF91EF919F917B
:100B20008F912F910F900FBE0F901F90189580817D
:100B3000F4CF1F920F920FB60F9211242F933F9371
:100B40004F935F936F937F938F939F93AF93BF93D5
:100B5000EF93FF9382E391E0CDDEFF91EF91BF91A0
:100B6000AF919F918F917F916F915F914F913F9145
:100B70002F910F900FBE0F901F901895E2E3F1E0B8
:100B80001382128288EE93E0A0E0B0E08483958324
:100B9000A683B78386E191E09183808385EC90E022
:100BA0009587848784EC90E09787868780EC90E037
:100BB000918B808B81EC90E0938B828B82EC90E028
:100BC000958B848B86EC90E0978B868B118E128EA2
:100BD000138E148E0895AF92BF92CF92DF92EF9250
:100BE000FF920F931F93CF93DF936C017B018B01D7
:100BF000040F151FEB015E01AE18BF08C017D10727
:100C000059F06991D601ED91FC910190F081E02DB0
:100C1000C6010995892B79F7C501DF91CF911F9105
:100C20000F91FF90EF90DF90CF90BF90AF9008951D
:100C3000A1E21A2EAA1BBB1BFD010DC0AA1FBB1FE0
:100C4000EE1FFF1FA217B307E407F50720F0A21B52
:100C5000B30BE40BF50B661F771F881F991F1A94BF
:100C600069F760957095809590959B01AC01BD01E9
:100C7000CF010895EE0FFF1F0590F491E02D099428
:040C8000F894FFCF16
:100C8400000000006F12833A0000000000007A4464
:100C9400240100000000BB04EB056B049C043D042C
:040CA40057044904A4
:00000001FF
