:1000000061C0000086C0000084C0000082C0000003
:1000100080C000007EC000007CC000007AC00000EC
:1000200078C0000076C0000074C0000072C00000FC
:1000300070C000007CC400006CC000006AC00000FA
:10004000CBC6000066C000000C9470090C94A20995
:1000500060C000005EC000005CC000005AC000002C
:1000600058C0000056C00000000000080002010057
:100070000003040700000000000000000102040863
:100080001020408001020408102001020408102002
:10009000040404040404040402020202020203032E
:1000A00003030303000000002300260029000000D2
:1000B0000000250028002B0000000000240027007D
:1000C0002A00C70911241FBECFEFD8E0DEBFCDBF85
:1000D00011E0A0E0B1E0E6E9F4E102C005900D9284
:1000E000A234B107D9F722E0A2E4B1E001C01D9229
:1000F000AF34B207E1F710E0C2E6D0E004C02197C8
:10010000FE010E94430AC136D107C9F7ACD40C9452
:10011000490A76CFCF93DF93882341F0EB018150DA
:10012000E0D699838883DF91CF910895FB011182F6
:100130001082F9CF0F931F938B019C0183E03695BA
:100140002795179507958A95D1F70E5B1E4F462F79
:10015000477021E030E0F90102C0EE0FFF1F4A9521
:10016000E2F7AF01F80120812423CB010196211190
:1001700002C090E080E01F910F9108950F931F93AC
:100180008B019C0183E036952795179507958A95F5
:10019000D1F7677081E090E001C0880F6A95EAF7B7
:1001A000F801EE5BFE4F2081452B31F480958223D0
:1001B00080831F910F910895822BFACFCF92DF9207
:1001C000EF92FF92CF93DF936B017C0160E08EE0B2
:1001D000C816D104E104F10488F48EE08C0DC5D674
:1001E000E6012196AE01C701B601C8DFCE01DF915D
:1001F000CF91FF90EF90DF90CF9008958C2DEFCFAF
:10020000882341F08150682F70E090E080E050E05A
:1002100040E0B4CF0895611101C0A7C66130E9F391
:1002200062E0FBCF662311F061E0DBC660E0FDCF4A
:1002300005D721E0019709F020E0822F0895FC0105
:1002400091E080914E01811190E091830895809119
:100250004E018F5F843618F480934E0108951092FA
:100260004E0108954F925F926F927F928F929F926C
:10027000AF92BF92CF92DF92EF92FF920F931F93B4
:10028000CF93DF93CDB7DEB72E970FB6F894DEBFCE
:100290000FBECDBFC0900401D0900501E0900601D3
:1002A000F0900701A7019601609110027091110270
:1002B000809112029091130272D4882341F0C0926F
:1002C0001002D0921102E0921202F09213026EE03C
:1002D00070E080E090E02EDF90930F0280930E029A
:1002E00043E050E0BE016F5F7F4F14DF69817A8188
:1002F00090E080E058D4209110013091110140919C
:1003000012015091130105D520911401309115016E
:100310004091160150911701DDD36B017C01809053
:10032000080190900901A0900A01B0900B01A5016D
:1003300094016091040270910502809106029091EF
:1003400007022DD4882341F0809204029092050286
:10035000A0920602B09207026FE070E080E090E0A9
:10036000E9DE909303028093020243E050E0BE0175
:100370006F5F7F4FCFDE69817A8190E080E013D498
:10038000209118013091190140911A0150911B01DF
:10039000C0D420911C0130911D0140911E0150914B
:1003A0001F0198D34B015C01209128013091290154
:1003B00040912A0150912B01ACD42B013C0180913A
:1003C000340290913502A0913602B09137028F83AA
:1003D0009887A987BA878091300290913102A091C5
:1003E0003202B09133028B879C87AD87BE878091A4
:1003F0000C0190910D01A0910E01B0910F018B8322
:100400009C83AD83BE839C01AD0160911C02709101
:100410001D0280911E0290911F02C1D3882361F0BA
:100420008B819C81AD81BE8180931C0290931D02C3
:10043000A0931E02B0931F0283E0FADE182F809172
:10044000450281112CC081E08093450280934602D1
:1004500092E09093480210924A0293E090934702F0
:1004600010924B021092FB0110924C0280934902B1
:1004700000E0602F88E0D6DE80914402873018F4D7
:100480008F5F80934402809140028111E4C081E03B
:100490008093400283E08093410260E01EC12F817F
:1004A000388549855A85C301B20114D32B853C8513
:1004B0004D855E852ED420914602213079F420E0CE
:1004C00030E0A9016CD387FF16C080914C028111E6
:1004D00012C082E08093460201E00EC020E030E0CE
:1004E000A90113D4181624F080914C028823A1F39B
:1004F00081E08093460200E080914802813051F013
:100500008230B1F58091FB01813021F0823021F5FC
:1005100010924A0280914702813009F461C0823012
:1005200009F07CC0209138023091390240913A02A2
:1005300050913B02C701B601CDD29F772FE73AE633
:100540004CEB5CE3E2D318160CF03FC083E08093E1
:10055000470210924B0244C080923C0290923D02AE
:10056000A0923E02B0923F0283E080934802D2CF35
:1005700020913C0230913D0240913E0250913F0259
:10058000C501B401A7D29F7727E137EB41E559E3D5
:10059000BCD3181624F482E080934802B9CF80912E
:1005A0004A02853140F081E08093FB01809348024C
:1005B00080934C02AFCF282F30E02F5F3F4F3A831C
:1005C00029838F5F80934A02CFCF80914B02853180
:1005D000D8F081E08093FB018093470280934C0226
:1005E00080914902813069F5112309F442CF90913D
:1005F000FB01913009F43DCF92E09093FB01909381
:10060000490280934C0235CF282F30E02F5F3F4FB7
:100610003A8329838F5F80934B02E2CF8091FB0165
:100620008130F1F2823009F491CFC0923802D09239
:100630003902E0923A02F0923B0282E08093470254
:10064000CFCF111116CF10924C021092FB0181E016
:10065000809349020ECF8091FB019091410291302D
:1006600079F0923031F1813009F47BC008F412CF77
:10067000823009F012CF80934102809342022AC057
:10068000811103C01092430205CF80914402209152
:100690004302213039F4853008F4FFCE82E08093A4
:1006A000430218C08530C0F0909343021092440278
:1006B000F4CE811103C010924202ECCE809144022C
:1006C00020914202213009F045C0882309F4E5CE8B
:1006D000909342021092440261E08AE0A3DD2091EF
:1006E0002001309121014091220150912301C70145
:1006F000B6010FD320913002309131024091320285
:1007000050913302E8D160933002709331028093AC
:10071000320290933302409234025092350260923A
:100720003602709237022E960FB6F894DEBF0FBED7
:10073000CDBFDF91CF911F910F91FF90EF90DF9090
:10074000CF90BF90AF909F908F907F906F905F9071
:100750004F900895882309F4BFCF81E0809342022F
:10076000A5CF809341029ACFAF92BF92CF92DF92F2
:10077000EF92FF921F93CF93DF93CCEFD1E080E015
:10078000A82E81E0B82EF50184A195A1A6A1B7A15C
:100790008CAB9DABAEABBFAB80819181A281B381AD
:1007A00088AF99AFAAAFBBAF1C8684819581A68123
:1007B000B7818C8B9D8BAE8BBF8B198AC12CD12CB2
:1007C0007601C394CD86DE86EF86F88A6EE070E00F
:1007D00080E090E0F3DC9B8B8A8B11E0198B188210
:1007E000F50180859185A285B38588879987AA8739
:1007F000BB871D82C982DA82EB82FC826FE070E0E7
:1008000080E090E0DBDC9F838E831D83188EF501F2
:1008100084859585A685B78588A399A3AAA3BBA33C
:10082000C98EDA8EEB8EFC8E60E083E0F4DC1D8FE7
:100830001CA6CDA6DEA6EFA6F8AA61E088E0EBDC58
:1008400019AB1CA2CDA2DEA2EFA2F8A661E08AE05D
:10085000E2DC19A7DF91CF911F91FF90EF90DF901D
:10086000CF90BF90AF9008958091080281111DC074
:1008700081E0809308028091090290910A02A09180
:100880000B02B0910C020197A105B10571F48091A2
:100890000D02882351F06EE070E080E090E04ADCC9
:1008A00090930F0280930E02ABDC8091FC018111CA
:1008B0001DC081E08093FC018091FD019091FE01BB
:1008C000A091FF01B09100020197A105B10571F45B
:1008D00080910102882351F06FE070E080E090E0A9
:1008E00029DC90930302809302028ADC8091140237
:1008F000811103C081E0809314028091280281114C
:1009000003C081E08093280280912002811103C0FE
:1009100081E080932002089540E855E260E070E0B5
:1009200090E080E000C026E08EE591E079C41F925F
:100930000F920FB60F9211242F933F934F935F9313
:100940006F937F938F939F93AF93BF93EF93FF9397
:1009500086E09FEF909385008093840032D0FF91D2
:10096000EF91BF91AF919F918F917F916F915F9127
:100970004F913F912F910F900FBE0F901F901895A0
:1009800086E09FEF9093850080938400AFE6B0E00F
:100990008C918E7F8C93E0E8F0E080818C7F808367
:1009A000E1E8F0E08081877E8083808183608083BE
:1009B00080818B7F80838C9181608C93089581E00E
:1009C0000895CF93DF9300D0CDB7DEB7809151016A
:1009D00091E0980F90935101882369F021E030E075
:1009E0003093540120935301809351010F900F9045
:1009F000DF91CF910895CE01019621DC789427DC18
:100A0000F894809151018150809351018A8188230B
:100A100089F08091500191E0980F909350018823C4
:100A200049F021E030E0309354012093530180934A
:100A30005001DCCF809150018823C1F28091520196
:100A40008111D4CF81E08093520178940BDCF8942B
:100A500080915001815080935001809152018150CA
:100A600080935201C3CFCF93DF9310924E02109226
:100A70004D02FCD151DFC0912D01D0912E01198280
:100A8000188272DEF8947CDF2881398181E0232B83
:100A900009F080E080934D027894789480914D0223
:100AA000811107C0E1DEF89490E080E0DF91CF9102
:100AB00008952881398181E0232B09F480E0809317
:100AC0004E0290914E0281E0911180E080934D02A0
:100AD00076DFE4CF5058BB27AA270ED0DCC0CDD09C
:100AE00030F0D2D020F031F49F3F11F41EF4C2C098
:100AF0000EF4E095E7FBB8C0E92FDED080F3BA171B
:100B0000620773078407950718F071F49EF5F6C025
:100B10000EF4E0950B2EBA2FA02D0B01B901900118
:100B20000C01CA01A0011124FF27591B99F0593F5C
:100B300050F4503E68F11A16F040A22F232F342FA4
:100B40004427585FF3CF469537952795A795F040F2
:100B50005395C9F77EF41F16BA0B620B730B840B07
:100B6000BAF09150A1F0FF0FBB1F661F771F881FBF
:100B7000C2F70EC0BA0F621F731F841F48F4879517
:100B800077956795B795F7959E3F08F0B3CF939506
:100B9000880F08F09927EE0F97958795089540D014
:100BA00008F481E00895E89409C097FB3EF490951D
:100BB0008095709561957F4F8F4F9F4F9923A9F036
:100BC000F92F96E9BB279395F695879577956795C5
:100BD000B795F111F8CFFAF4BB0F11F460FF1BC009
:100BE0006F5F7F4F8F4F9F4F16C0882311F096E99C
:100BF00011C0772321F09EE8872F762F05C066234A
:100C000071F096E8862F70E060E02AF09A95660F02
:100C1000771F881FDAF7880F9695879597F90895BB
:100C2000990F0008550FAA0BE0E8FEEF16161706FD
:100C3000E807F907C0F012161306E407F50798F065
:100C4000621B730B840B950B39F40A2661F0232B7E
:100C5000242B252B21F408950A2609F4A140A695FA
:100C60008FEF811D811D089597F99F6780E870E0DF
:100C700060E008959FEF80EC089500240A94161612
:100C8000170618060906089500240A94121613067A
:100C9000140605060895092E0394000C11F4882308
:100CA00052F0BB0F40F4BF2B11F460FF04C06F5F24
:100CB0007F4F8F4F9F4F089557FD9058440F551FFA
:100CC00059F05F3F71F04795880F97FB991F61F0CE
:100CD0009F3F79F087950895121613061406551F45
:100CE000F2CF4695F1DF08C0161617061806991FB1
:100CF000F1CF86957105610508940895E894BB27A6
:100D000066277727CB0197F908958ADF08F48FEFDC
:100D100008950BD0C0CFB1DF28F0B6DF18F09523CF
:100D200009F0A2CFA7CF1124EACFC6DFA0F3959F89
:100D3000D1F3950F50E0551F629FF001729FBB27C2
:100D4000F00DB11D639FAA27F00DB11DAA1F649F6E
:100D50006627B00DA11D661F829F2227B00DA11D21
:100D6000621F739FB00DA11D621F839FA00D611DA7
:100D7000221F749F3327A00D611D231F849F600DC8
:100D8000211D822F762F6A2F11249F5750408AF001
:100D9000E1F088234AF0EE0FFF1FBB1F661F771F8D
:100DA000881F91505040A9F79E3F510570F05CCFCD
:100DB000A6CF5F3FECF3983EDCF386957795679579
:100DC000B795F795E7959F5FC1F7FE2B880F911DAB
:100DD0009695879597F908951F920F920FB60F92E7
:100DE00011242F933F938F939F93AF93BF93809141
:100DF000560190915701A0915801B091590130913D
:100E0000550123E0230F2D3758F50196A11DB11D83
:100E1000209355018093560190935701A093580158
:100E2000B093590180915A0190915B01A0915C01AE
:100E3000B0915D010196A11DB11D80935A0190935F
:100E40005B01A0935C01B0935D01BF91AF919F9155
:100E50008F913F912F910F900FBE0F901F9018957B
:100E600026E8230F0296A11DB11DD2CF789484B538
:100E7000826084BD84B5816084BD85B5826085BD96
:100E800085B5816085BDEEE6F0E08081816080837C
:100E9000E1E8F0E01082808182608083808181605F
:100EA0008083E0E8F0E0808181608083E1EBF0E026
:100EB000808184608083E0EBF0E0808181608083CA
:100EC000EAE7F0E0808184608083808182608083B3
:100ED0008081816080838081806880831092C100DE
:100EE00008958E3008F08E5020912C0190E4299FB7
:100EF000900111248770822B80937C0080917A006E
:100F0000806480937A0080917A0086FDFCCF809186
:100F10007800909179000895833081F028F4813031
:100F200099F08230A9F008958730A9F08830C9F08F
:100F30008430B1F4809180008F7D03C08091800067
:100F40008F7780938000089584B58F7784BD08954E
:100F500084B58F7DFBCF8091B0008F778093B000F8
:100F600008958091B0008F7DF9CFCF93DF9390E00B
:100F7000FC01E458FF4F249180579F4FFC0184915E
:100F80008823C9F090E0880F991FFC01E854FF4FB7
:100F9000A591B491FC01E255FF4FC591D491611127
:100FA0000DC09FB7F8948C91209582238C938881F3
:100FB000282328839FBFDF91CF910895623051F499
:100FC0009FB7F8943C91822F809583238C93E8817E
:100FD0002E2BEFCF8FB7F894EC912E2B2C938FBF45
:100FE000EACF1F93CF93DF93282F30E0F901E85920
:100FF000FF4F8491F901E458FF4FD491F901E05774
:10100000FF4FC491CC23A1F0162F811185DFEC2F67
:10101000F0E0EE0FFF1FE255FF4FA591B4918FB79F
:10102000F894EC91111108C0D095DE23DC938FBFAA
:10103000DF91CF911F910895DE2BF8CFCF93DF93EF
:10104000282F30E0F901E859FF4F8491F901E45865
:10105000FF4FD491F901E057FF4FC491CC2399F091
:1010600081115ADFEC2FF0E0EE0FFF1FEC55FF4F20
:10107000A591B491EC91ED2381E090E009F480E03A
:10108000DF91CF91089580E090E0FACFFC01918D3F
:10109000228D892F90E0805C9F4F821B91098F7376
:1010A00099270895FC01918D828D981731F0828DDA
:1010B000E80FF11D858D90E008958FEF9FEF089563
:1010C000FC01918D828D981761F0A28DAE0FBF2F1C
:1010D000B11D5D968C91928D9F5F9F73928F90E072
:1010E00008958FEF9FEF0895FC01538D448D252FB8
:1010F00030E0842F90E0821B930B541710F0CF96B2
:10110000089501970895FC01A48DA80FB92FB11D72
:10111000A35ABF4F2C91848D90E001968F7399272D
:10112000848FA689B7892C93A089B1898C9183700B
:1011300080648C93938D848D981306C00288F38904
:10114000E02D80818F7D80830895CF93DF93EC0124
:10115000888D8823B1F0AA89BB89E889F9898C91A7
:1011600085FD03C0808186FD0CC00FB607FCF7CF5C
:101170008C9185FFF2CF808185FFEDCFCE01C3DF5B
:10118000EACFDF91CF910895EF92FF920F931F93D3
:10119000CF93DF93EC0181E0888F9B8D8C8D98132A
:1011A0001AC0E889F989808185FF15C09FB7F89436
:1011B000EE89FF896083E889F98980818370806482
:1011C00080839FBF81E090E0DF91CF911F910F91CD
:1011D000FF90EF900895F62E0B8D10E00F5F1F4FDC
:1011E0000F731127E02E8C8D8E110BC00FB607FCEC
:1011F000FACFE889F989808185FFF5CFCE0183DFB9
:10120000F2CFEB8DEC0FFD2FF11DE35AFF4FF08273
:101210009FB7F8940B8FEA89FB8980818062D0CFD9
:10122000CF92DF92EF92FF921F93CF93DF93EC0167
:101230006A017B01122FE889F98982E08083C11459
:1012400081EED806E104F10499F060E079E08DE3E5
:1012500090E0A7019601F5D02150310941095109CB
:101260005695479537952795211580E1380790F0D9
:10127000E889F989108260E874E88EE190E0A701BE
:101280009601DFD021503109410951095695479502
:1012900037952795EC85FD853083EE85FF85208386
:1012A000188EEC89FD891083EA89FB898081806131
:1012B0008083EA89FB89808188608083EA89FB8951
:1012C000808180688083EA89FB8980818F7D80832B
:1012D000DF91CF911F91FF90EF90DF90CF90089515
:1012E0001F920F920FB60F9211242F938F939F93FB
:1012F000EF93FF93E0916E01F0916F018081E09197
:101300007401F091750182FD1BC09081809177017D
:101310008F5F8F7320917801821741F0E091770100
:10132000F0E0E25AFE4F958F80937701FF91EF91A5
:101330009F918F912F910F900FBE0F901F90189536
:101340008081F4CF1F920F920FB60F9211242F932A
:101350003F934F935F936F937F938F939F93AF933D
:10136000BF93EF93FF938EE591E0CDDEFF91EF9178
:10137000BF91AF919F918F917F916F915F914F91AD
:101380003F912F910F900FBE0F901F901895EEE593
:10139000F1E01382128288EE93E0A0E0B0E0848353
:1013A0009583A683B78383E391E09183808385EC63
:1013B00090E09587848784EC90E09787868780EC1F
:1013C00090E0918B808B81EC90E0938B828B82EC10
:1013D00090E0958B848B86EC90E0978B868B118EBA
:1013E000128E138E148E0895AF92BF92CF92DF9219
:1013F000EF92FF920F931F93CF93DF936C017B01CA
:101400008B01040F151FEB015E01AE18BF08C0175A
:10141000D10759F06991D601ED91FC910190F081CD
:10142000E02DC6010995892B79F7C501DF91CF9190
:101430001F910F91FF90EF90DF90CF90BF90AF90F2
:101440000895A1E21A2EAA1BBB1BFD010DC0AA1F05
:10145000BB1FEE1FFF1FA217B307E407F50720F01D
:10146000A21BB30BE40BF50B661F771F881F991F98
:101470001A9469F760957095809590959B01AC01E1
:10148000BD01CF010895EE0FFF1F0590F491E02DEF
:061490000994F894FFCF5F
:1014960000000000000080BF000080BFCDCCCC3D26
:1014A600000020420000C842000000410000A041A8
:1014B600CDCCCC3D0000000000002041014B0100D6
:1014C600000000C408F4097408A50846086008521C
:0214D60008000C
:00000001FF
