:1000000061C0000086C0000084C0000082C0000003
:1000100080C000007EC000007CC000007AC00000EC
:1000200078C0000076C0000074C0000072C00000FC
:1000300070C000006EC000006CC000006AC000000C
:100040000C94590E66C000000C945D110C948F1135
:1000500060C000005EC000005CC000005AC000002C
:1000600058C0000056C00000000000080002010057
:100070000003040700000000000000000102040863
:100080001020408001020408102001020408102002
:10009000040404040404040402020202020203032E
:1000A00003030303000000002300260029000000D2
:1000B0000000250028002B0000000000240027007D
:1000C0002A00B41111241FBECFEFD8E0DEBFCDBF90
:1000D00011E0A0E0B1E0E0E4F5E202C005900D928D
:1000E000A839B107D9F722E0A8E9B1E001C01D9213
:1000F000AC3EB207E1F710E0C2E6D0E004C02197C1
:10010000FE010E948912C136D107C9F7F0D60C94BE
:100110009E1276CFCF93DF93882349F0EB01815075
:100120000E94030F99838883DF91CF910895FB018B
:1001300011821082F9CF0F931F938B019C0183E0F2
:1001400036952795179507958A95D1F70F551E4F28
:10015000462F477021E030E0F90102C0EE0FFF1F8B
:100160004A95E2F7AF01F80120812423CB010196E3
:10017000211102C090E080E01F910F9108950F932C
:100180001F938B019C0183E0369527951795079562
:100190008A95D1F7677081E090E001C0880F6A9579
:1001A000EAF7F801EF55FE4F2081452B31F4809599
:1001B000822380831F910F910895822BFACFCF92D3
:1001C000DF92EF92FF92CF93DF936B017C0160E0AF
:1001D0008EE0C816D104E104F10490F48EE08C0D99
:1001E0000E94A20FE6012196AE01C701B601C7DF4A
:1001F000CE01DF91CF91FF90EF90DF90CF900895E7
:100200008C2DEECF882341F08150682F70E090E074
:1002100080E050E040E0B3CF0895611102C00C943B
:10022000A20F6130E1F362E0FACF662319F061E0DA
:100230000C94DE0F60E0FCCF0E940B1021E00197D0
:1002400009F020E0822F0895CF92DF92EF92FF9283
:10025000CF93882351F16A017B01CFEFC80F20E0D3
:1002600030E0A901CB01B6010E94DA0B87FF11C073
:10027000C701B60190580E94E30B9B01AC016C2FA3
:1002800070E090E080E0CF91FF90EF90DF90CF9012
:10029000B2C0C701B6010E94DE0B8C2FCF91FF9038
:1002A000EF90DF90CF900C941E0FCF91FF90EF90C6
:1002B000DF90CF9008950F931F938B019C0183E0F3
:1002C00036952795179507958A95D1F708561E4FAD
:1002D000462F477021E030E0F90102C0EE0FFF1F0A
:1002E0004A95E2F7AF01F80120812423CB01019662
:1002F000211102C090E080E01F910F9108950F93AB
:100300001F938B019C0183E03695279517950795E0
:100310008A95D1F7677081E090E001C0880F6A95F7
:10032000EAF7F801E856FE4F2081452B31F480951D
:10033000822380831F910F910895822BFACF2F92F1
:100340003F924F925F926F927F928F929F92AF9265
:10035000BF92CF92DF92EF92FF920F931F93CF93B2
:10036000DF93D62EC72E782E692E49015A01280117
:1003700061E08D2D0E94A20FCD2DDC2D8E010F5F2F
:100380001F4FA8016D2D7C2D872D962DB8DF20E005
:1003900030E0A901C201B7010E94F20D181664F401
:1003A000C201B7010E94E30B2B01C501B4010E94F9
:1003B000E30BA201CE0123D0C801DF91CF911F91A1
:1003C0000F91FF90EF90DF90CF90BF90AF909F90F4
:1003D0008F907F906F905F904F903F902F900895F7
:1003E000882341F08150682F70E090E080E050E079
:1003F00040E085CF0895862FB9010C941E0F9C0113
:10040000FC01E859FF4FE491E33061F140F4E13041
:1004100011F1E23021F160E0822F0C94DE0FE73021
:10042000C1F1E83009F441C0E430A9F780918000BF
:100430008C7F82608093800090918100907E90619B
:10044000692B6093810050938700409386008091D0
:10045000800080621BC084B5806884BDDCCF84B519
:100460008062FBCF809180008C7F826080938000CF
:1004700090918100907E9061692B609381005093F0
:100480008700409386008091800080688093800080
:10049000C2CF8091B00080688093B0008091B1009D
:1004A000887F682B6093B100B6CF8091B0008062E6
:1004B000F3CF2F923F924F925F926F927F928F92E3
:1004C0009F92AF92BF92CF92DF92EF92FF920F93E3
:1004D0001F93CF93DF93CDB7DEB767970FB6F8942E
:1004E000DEBF0FBECDBF80900C0190900D01A0909B
:1004F0000E01B0900F01A50194016091A3027091CB
:10050000A4028091A5029091A6020E94DA0B882392
:1005100041F08092A3029092A402A092A502B09210
:10052000A60288E089DE898B80900001909001010D
:10053000A0900201B0900301A5019401609197027F
:10054000709198028091990290919A020E94DA0B20
:10055000882341F08092970290929802A09299028B
:10056000B0929A0262E170E080E090E0E4DD909366
:1005700096028093950223E030E030936602209348
:10058000650243E050E0BE01655F7F4FC3DD6B85D0
:100590007C8590E080E00E94130C9B01AC0160918F
:1005A00018017091190180911A0190911B010E940C
:1005B000F60D6093730270937402809375029093AA
:1005C00076028090040190900501A0900601B09001
:1005D0000701A501940160918B0270918C028091BA
:1005E0008D0290918E020E94DA0B882341F0809256
:1005F0008B0290928C02A0928D02B0928E0261E1E9
:1006000070E080E090E097DD90938A028093890209
:1006100023E030E0309366022093650243E050E02F
:10062000BE01655F7F4F76DD8B859C859A878987C4
:100630008090080190900901A0900A01B0900B01F0
:10064000A501940160917F027091800280918102E6
:10065000909182020E94DA0B882341F080927F02FF
:1006600090928002A0928102B092820260E170E0DA
:1006700080E090E060DD90937E0280937D0223E035
:1006800030E0309366022093650243E050E0BE0103
:10069000655F7F4F3FDD6B857C8590E080E00E9449
:1006A000130C20911C0130911D0140911E015091AD
:1006B0001F010E94F60D20912001309121014091EF
:1006C000220150912301FED769837A838B839C8317
:1006D0003CEC832E32E0932E48ECA42E42E0B42E64
:1006E000CE010F966C0102977C018E010B5F1F4FAC
:1006F0009E012F5F3F4FAE01475F5F4F63E772E0A0
:1007000004962BD48F859889B0E0A0E040914001F9
:10071000509141016091420170914301481759077E
:100720006A077B070CF07EC0809110019091110147
:10073000A0911201B0911301809367029093680217
:10074000A0936902B0936A02609167027091680297
:100750008091690290916A0250D72B013C0140922E
:100760006702509268026092690270926A0220E009
:1007700030E040E853E40E94DA0B6FEF87FF0EC0D1
:1007800020E030E0A901C301B2010E94F20D60E057
:1007900087FD04C0C301B2010E94E30B86E045DD82
:1007A00063E070E080E090E086DD8C019093C6020B
:1007B0008093C5022D813E814F815885609148010B
:1007C0007091490180914A0190914B010E94F60D70
:1007D000209124013091250140912601509127015B
:1007E00071D72B013C0140926702509268026092DF
:1007F000690270926A028090280190902901A0906D
:100800002A01B0902B01A50194010E94F20D181647
:1008100094F48092670290926802A0926902B0926A
:100820006A0218C08091140190911501A0911601DF
:10083000B091170181CF80902C0190902D01A09054
:100840002E01B0902F01A5019401C301B201B2D7CE
:1008500087FDDFCF60916702709168028091690225
:1008600090916A0220E030E04FE753E40E94C00C10
:1008700020E030E0A9010E94A10CAB01BC01C8013D
:10088000E3DC8091440190914501A0914601B09133
:1008900047012C013D01770C4408542C32010D8591
:1008A0001E855801C12CD12CE12CF12C00E010E068
:1008B0009C01AD01642D742D842D942D0E94301265
:1008C00020936B0230936C0240936D0250936E0242
:1008D00060936F0270937002809371029093720222
:1008E00069E070E080E090E0E6DC9B8B8A8B90937F
:1008F000BE028093BD0220906B0230906C0240904B
:100900006D0250906E0290916F029C8B80917002EC
:100910008D8B909171029E8B809172028F8BB09122
:100920003001A0913101F0913201E09133019090BA
:10093000340180903501709036016090370191014B
:10094000A2016C897D89892F9F89AB2EBA2ECF2E6B
:10095000DE2EE92CF82C072D162D0E94801209F0AE
:100960000CF47CC0B0936B02A0936C02F0936D0208
:10097000E0936E0290926F02809270027092710208
:100980006092720220916B0230916C0240916D0274
:1009900050916E0260916F027091700280917102AD
:1009A000909172023CD720E030E040E053E30E9497
:1009B000F60D20E030E04FE753E4E2D720E030E0EE
:1009C000A901BFD7AB01BC018A899B893DDC80911D
:1009D000B0019091B101A091B201B091B301892B06
:1009E0008A2B8B2B49F461E08091C702811160E072
:1009F0006093C7028DE019DC8091B0019091B10144
:100A0000A091B201B091B3010196A11DB11D853035
:100A10009105A105B10508F052C08093B0019093F3
:100A2000B101A093B201B093B30167960FB6F894E9
:100A3000DEBF0FBECDBFDF91CF911F910F91FF9011
:100A4000EF90DF90CF90BF90AF909F908F907F906E
:100A50006F905F904F903F902F9008956090380175
:100A60007090390180903A0190903B01B0913C0127
:100A7000A0913D01F0913E01E0913F019101A20161
:100A80006C897D898E899F8953016401EB2EFA2E32
:100A90000F2F1E2F0E9480120CF074CF60926B02F9
:100AA00070926C0280926D0290926E02B0936F020F
:100AB000A0937002F0937102E093720263CF1092E0
:100AC000B0011092B1011092B2011092B301ADCFFA
:100AD0008F929F92AF92BF92DF92EF92FF920F930D
:100AE0001F93CF93DF9360ED72E08AEA91E0FAD42E
:100AF000C7E7D2E000E011E080914C018093C7028B
:100B00001CA2F80184859585A685B7858CA79DA72D
:100B1000AEA7BFA7812C912C540183948DA29EA2D5
:100B2000AFA2B8A660E088E078DBDD24D394D9A634
:100B3000188EF80180819181A281B38188A399A345
:100B4000AAA3BBA3898E9A8EAB8EBC8E62E170E0A5
:100B500080E090E034DB9F8F8E8FDD8E1C86F80165
:100B600084819581A681B7818C8B9D8BAE8BBF8B49
:100B70008D869E86AF86B88A61E170E080E090E065
:100B80001EDB9B8B8A8BD98A1882F8018085918520
:100B9000A285B38588879987AA87BB8789829A822D
:100BA000AB82BC8260E170E080E090E008DB9F8374
:100BB0008E83DD8218AA89AA9AAAABAABCAA61E090
:100BC00086E02BDBDDAA1092BF028092C0029092D9
:100BD000C102A092C202B092C302E12CF12C8701A3
:100BE000A801970163E070E080E090E0A8DB9093BB
:100BF000C6028093C502D092C4021092B7028092BE
:100C0000B8029092B902A092BA02B092BB02A801B7
:100C1000970169E070E080E090E091DB9093BE0284
:100C20008093BD02D092BC0218AE89AE9AAEABAE34
:100C3000BCAE61E08DE0F1DADDAEDF91CF911F91C6
:100C40000F91FF90EF90DF90BF90AF909F908F90AB
:100C5000089580919B02811103C081E080939B02E3
:100C600080918F0281111DC081E080938F0280915D
:100C7000900290919102A0919202B09193020197FB
:100C8000A105B10571F480919402882351F062E1CD
:100C900070E080E090E04FDA9093960280939502A6
:100CA000B1DA8091830281111DC081E080938302BB
:100CB0008091840290918502A0918602B091870272
:100CC0000197A105B10571F480918802882351F044
:100CD00061E170E080E090E02EDA90938A028093E8
:100CE000890290DA8091770281111DC081E08093A2
:100CF00077028091780290917902A0917A02B09166
:100D00007B020197A105B10571F480917C028823D3
:100D100051F060E170E080E090E00DDA90937E02A7
:100D200080937D026FDA8091A702811103C081E078
:100D30008093A7028091BF0281112AC081E0809335
:100D4000BF028091C0029091C102A091C202B091F5
:100D5000C3020197A105B105D9F48091C40288238B
:100D6000B9F063E070E080E090E0A5DA9093C6020D
:100D70008093C50240E050E0BA0166DA63E070E0BB
:100D800080E090E098DA9093C6028093C50228DB59
:100D90008091B70281112AC081E08093B7028091CF
:100DA000B8029091B902A091BA02B091BB0201972A
:100DB000A105B105D9F48091BC028823B9F069E09E
:100DC00070E080E090E077DA9093BE028093BD02FD
:100DD00040E050E0BA0138DA69E070E080E090E08D
:100DE0006ADA9093BE028093BD02FADA8091AF0274
:100DF000811103C081E08093AF02089526E030E0C6
:100E000040E855E260E070E090E080E000C0892BAF
:100E100021F488EC91E00C94FD1008950895CF9290
:100E2000DF92EF92FF920F931F938DD76093B401DF
:100E30007093B5018093B6019093B7010091B8010A
:100E40001091B9012091BA013091BB016B017C0175
:100E5000C01AD10AE20AF30A97018601003A16483D
:100E60002140310508F16093B8017093B901809376
:100E7000BA019093BB0125D066D70091B8011091BB
:100E8000B9012091BA013091BB01601B710B820B3B
:100E9000930B603A76488140910570F081E090E0D4
:100EA0009093BE018093BD0181E01F910F91FF904F
:100EB000EF90DF90CF9008951092BE011092BD0187
:100EC000F3CF8091BC0191E0980F9093BC018823EF
:100ED00049F021E030E03093BE012093BD018093C2
:100EE000BC010895E6DA8091BC018150F8CFCF9320
:100EF000DF931092D3021092D2024AD77FDFC091C3
:100F00008401D091850119821882E2DDF89486DF90
:100F100081E028813981232B09F080E08093D2027F
:100F200078948091D202811107C093DEF89490E00A
:100F300080E0DF91CF91089581E028813981232BD2
:100F400009F480E08093D3029091D30281E0911163
:100F500080E08093D20263DFE4CF2F923F924F92E2
:100F60005F926F927F928F929F92AF92BF92CF9239
:100F7000DF92EF92FF920F931F93CF93DF93CDB742
:100F8000DEB728970FB6F894DEBF0FBECDBF9A83A9
:100F9000898339011E830D83FC82EB82D886CF8240
:100FA0001501FB01C080D180E280F380FA01A080AE
:100FB000B180F401828181110CC081E0828384E0E0
:100FC0008083F101108211821282138210E000E00E
:100FD00065C08081823009F4C6C1C8F4813061F1F6
:100FE000F1E0AF16B10409F0C2C1A7019601505853
:100FF00060914D0170914E0180914F01909150018F
:10100000F5D5F101608371838283938308C28330B5
:1010100009F4E4C1843021F7E981FA8180818823D1
:10102000A9F281E090E0A114B10411F490E080E015
:10103000892B09F09CC1CACFF4E0AF16B10429F0A6
:10104000F401118282E08083C6C1F4018181813084
:1010500009F430C1823009F460C12BEA3AEA4AEA65
:101060005EE3C701B601BED518160CF460C12DECC5
:101070003CEC4CE45EE3F3016081718182819381F9
:1010800099D318160CF455C182E0F4018183F10163
:10109000108211821282138204E010E0A7019601EF
:1010A0006091790170917A0180917B0190917C012E
:1010B00081D387FFEFC1C0905D01D0905E01E090C9
:1010C0005F01F0906001B801012E000C880B990BB4
:1010D000ACD32091690130916A0140916B0150912C
:1010E0006C01F0D220E030E0A90164D3709081015E
:1010F000811102C07090820160907F01011511057D
:1011000011F460908001F10160817181828193818D
:1011100005D420E030E0A9014DD350907D0181112C
:1011200002C050907E01B501BB0C880B990B7DD39A
:1011300020916D0130916E0140916F0150917001CD
:1011400051D518160CF0AFC1809055019090560102
:10115000A0905701B0905801711003C0662009F4A7
:10116000ABC191E080E0511001C090E099838A8387
:10117000609175017091760180917701909178016D
:1011800054D32B013C0129813A81B901330F880BDB
:10119000990B4BD39B01AC01C301B20127D520E0D1
:1011A00030E040E051E322D5A5019401CAD3A70164
:1011B0009601C7D34B015C01B1D36B017C01D9D13E
:1011C00081117DC120E030E040E85FE4C701B60155
:1011D000FDD36B017C0120E030E0A901EBD287FF59
:1011E00071C1C701B6019058EED271956195710930
:1011F000EF81F88571836083A5019401609171018D
:10120000709172018091730190917401D3D287FF24
:1012100064C1609165017091660180916701909150
:1012200068017CD36B017C01E7D181114FC1C701FB
:10123000B6019FD181114AC120E030E040E85FE46F
:10124000C701B601C3D36B017C0120E030E0A901E6
:10125000B1D287FF3EC1C701B6019058B4D2719593
:1012600061957109EB81FC8171836083F10180815B
:101270009181A281B381ED81FE8180839183A283DC
:10128000B38328960FB6F894DEBF0FBECDBFDF91B3
:10129000CF911F910F91FF90EF90DF90CF90BF9073
:1012A000AF909F908F907F906F905F904F903F9006
:1012B0002F9008952BEA3AEA4AEA5EE3C701B601A5
:1012C00079D2181624F083E0F4018183E5CE20E082
:1012D00030E040E450E460915101709152018091FE
:1012E00053019091540182D420E030E040E05FE36C
:1012F0007DD42B013C012BEA3AEA4AEA5EE3C701BE
:10130000B601E0D19B01AC01C301B2016FD4F10180
:101310006083718382839383BFCE2BEA3AEA4AEAE1
:101320005EE3C701B6015ED418160CF0B5CE81E0BD
:10133000CBCF40905101509052016090530170907A
:10134000540177FA709477F8709420E030E040E42C
:1013500050E4C701B6014AD49B01AC0160E070E0E3
:1013600080E89FE3CECFF3E0AF16B1046CF483E0E6
:10137000F401808381E08383F10110821182128263
:10138000138202E010E08ACE2BEA3AEA4AEA5EE3F0
:10139000C701B60127D4181674F481E090E0F4E098
:1013A000AF16B10411F090E080E0892B21F081E0CC
:1013B000F40180838ACFA701960160915101709159
:1013C0005201809153019091540110D4F101608336
:1013D00071838283938303E010E060CEF901408043
:1013E00051806280738020E030E040EA50E4C30125
:1013F000B201E0D187FF16C0E981FA81808188239C
:1014000089F081E090E0F1E0AF16B10411F090E0D6
:1014100080E0892B39F0F401138285E0808301E0BC
:1014200010E03CCE20E030E040EA50ECC301B201D5
:10143000D9D3181694F4E981FA818081882369F060
:1014400081E090E0F3E0AF16B10414F490E080E0A6
:10145000892B19F0F4011382F5CDC301B2019F77F6
:1014600020E030E040EA50E4A5D187FF8ACFE9814F
:10147000FA818081882309F484CF81E090E0A1146F
:10148000B10411F090E080E0892B09F47ACFF401E7
:10149000138295CDC0906101D0906201E09063010C
:1014A000F090640110CE8090590190905A01A09064
:1014B0005B01B0905C0150CE1A82198259CEC12CCA
:1014C000D12C7601C701B6017ED192CEC12CD12C90
:1014D0007601C701B60177D1C5CEEB81FC811183BE
:1014E0000083C4CE0F931F93CF93DF938C01EB0146
:1014F00084E090E007D019830883DF91CF911F919A
:101500000F910895D5D06093E0027093E10280932B
:10151000E2029093E302D1D06093D4027093D5029B
:101520008093D6029093D702AFD06093DC02709381
:10153000DD028093DE029093DF02ABD06093D8028D
:101540007093D9028093DA029093DB02A7D0609364
:10155000E4027093E5028093E6029093E702A3D041
:101560006093E8027093E9028093EA029093EB02A1
:101570000895CF92DF92EF92FF92CF936B017C019F
:10158000AC019B016091DC027091DD028091DE0272
:101590009091DF020FD1C1E0882369F0A701960185
:1015A0006091E4027091E5028091E6029091E70279
:1015B00001D18111C0E08C2FCF91FF90EF90DF908F
:1015C000CF9008950F931F938B019C010027112743
:1015D00020783F770115110520483F4749F4AB01BA
:1015E000BC016F77772781E0452B462B472B09F409
:1015F00080E01F910F910895E5CFCF92DF92EF9297
:10160000FF926B017C019F7720E030E040E859E5D4
:10161000D1D087FF26C020E030E040E05FE3C70183
:10162000B601E0D287FD0CC020E030E040E05FE38F
:10163000C701B60148D0FF90EF90DF90CF906EC108
:1016400020E030E040E05FEBC701B601CBD21816D6
:101650007CF420E030E0A901C701B601C7D26B01DC
:101660007C01C701B601FF90EF90DF90CF90089505
:1016700020E030E040E05FE3C701B60123D0FF90F7
:10168000EF90DF90CF9083C060E070E080E89FE74C
:10169000089560E070E080E89FE7089560E070E002
:1016A00080E89FEF089560E070E080E89FEF089584
:1016B00060E070E080EC9FEF089560E070E080EC07
:1016C0009FEF08955058BB27AA270ED03AC22BD2BD
:1016D00030F030D220F031F49F3F11F41EF410C2EC
:1016E0000EF4E095E7FBDDC1E92F3CD280F3BA1799
:1016F000620773078407950718F071F49EF56BC2B3
:101700000EF4E0950B2EBA2FA02D0B01B90190011C
:101710000C01CA01A0011124FF27591B99F0593F60
:1017200050F4503E68F11A16F040A22F232F342FA8
:101730004427585FF3CF469537952795A795F040F6
:101740005395C9F77EF41F16BA0B620B730B840B0B
:10175000BAF09150A1F0FF0FBB1F661F771F881FC3
:10176000C2F70EC0BA0F621F731F841F48F487951B
:1017700077956795B795F7959E3F08F0B3CF93950A
:10178000880F08F09927EE0F9795879508950CD24A
:1017900080F09F3740F491110EF41EC260E070E0BB
:1017A00080E89FE3089526F01B16611D711D811DC1
:1017B0007EC198C152D108F481E0089504D06894A4
:1017C000B1110AC20895D6D188F09F5790F0B92F71
:1017D0009927B751A0F0D1F0660F771F881F991F86
:1017E0001AF0BA95C9F712C0B13081F0F4D1B1E066
:1017F0000895F1C1672F782F8827B85F39F0B93F76
:10180000CCF3869577956795B395D9F73EF4909587
:101810008095709561957F4F8F4F9F4F089597FBEF
:101820000EF471D13EC0E89409C097FB3EF4909548
:101830008095709561957F4F8F4F9F4F9923A9F0A9
:10184000F92F96E9BB279395F69587957795679538
:10185000B795F111F8CFFAF4BB0F11F460FF1BC07C
:101860006F5F7F4F8F4F9F4F16C0882311F096E90F
:1018700011C0772321F09EE8872F762F05C06623BD
:1018800071F096E8862F70E060E02AF09A95660F76
:10189000771F881FDAF7880F9695879597F908952F
:1018A000E894F92F96EBFF2381F012161306140625
:1018B000440B9395F6958795779567955795404096
:1018C000FF23B9F71BC099270895882351F4985036
:1018D000D2F7872B762F652F542F432F322F20E0FE
:1018E000B1F3121613061406440B88233AF09A95A6
:1018F000440F551F661F771F881FCAF755234AF4E8
:10190000440F551F11F460FF04C06F5F7F4F8F4F6E
:101910009F4F880F9695879597F9089545D180F048
:101920009F3740F491110EF057C160E070E080E8FD
:101930009FEB089526F41B16611D711D811DB7C014
:10194000D1C0990FBB0B550FAA0BE0E8FEEF16169E
:101950001706E807F90770F012161306E407F507F3
:1019600060F0BA173CF049F46217730784079507D3
:10197000A7951BF4B901CA01BA2FB695979508959A
:10198000990FBB0B550FAA0BE0E8FEEF16161706D2
:10199000E807F90770F012161306E407F50760F080
:1019A000BA1754F031F42617370748075907A79597
:1019B0001BF4B901CA01BA2FB69597950895B3D013
:1019C00018F011F0B7D038F49BC006C1E92FCAD087
:1019D000B0F35523C9F3E7FB621773078407950734
:1019E000A8F199F3E92FFF2788232AF03197660F92
:1019F000771F881FDAF7952F5527442332F091502F
:101A00005040220F331F441FD2F7BB27E91BF50BB1
:101A1000621B730B840BB109C1F222F4620F731FB6
:101A2000841FB11D31972AF0660F771F881FBB1FD7
:101A3000EFCF915050405AF041F0882332F0660FBA
:101A4000771F881F91505040C1F793954BC08695E2
:101A5000779567959F5FD9F7F8CF990F0008550FD5
:101A6000AA0BE0E8FEEF16161706E807F907C0F024
:101A700012161306E407F50798F0621B730B840B2C
:101A8000950B39F40A2661F0232B242B252B21F406
:101A900008950A2609F4A140A6958FEF811D811DA6
:101AA000089597F99F6780E870E060E008958823C3
:101AB00071F4772321F09850872B762F07C0662387
:101AC00011F499270DC09051862B70E060E02AF048
:101AD0009A95660F771F881FDAF7880F9695879576
:101AE00097F908959F3F31F0915020F487957795AD
:101AF0006795B795880F911D9695879597F90895E5
:101B00009FEF80EC08959095809570956095509525
:101B10004095309521953F4F4F4F5F4F6F4F7F4F0F
:101B20008F4F9F4F089500240A9416161706180623
:101B30000906089500240A941216130614060506D1
:101B40000895092E0394000C11F4882352F0BB0F62
:101B500040F4BF2B11F460FF04C06F5F7F4F8F4FC5
:101B60009F4F089557FD9058440F551F59F05F3F00
:101B700071F04795880F97FB991F61F09F3F79F0AF
:101B800087950895121613061406551FF2CF469531
:101B9000F1DF08C0161617061806991FF1CF8695B3
:101BA0007105610508940895E5DFA0F0BEE7B91757
:101BB00088F4BB279F3860F41616B11D672F782F65
:101BC0008827985FF7CF869577956795B11D939590
:101BD0009639C8F30895E894BB2766277727CB0189
:101BE00097F908953ADF08F48FEF08950BD0A9CF45
:101BF0009ADF28F09FDF18F0952309F052CF80CFAD
:101C00001124EACFAFDFA0F3959FD1F3950F50E0F9
:101C1000551F629FF001729FBB27F00DB11D639F9E
:101C2000AA27F00DB11DAA1F649F6627B00DA11D44
:101C3000661F829F2227B00DA11D621F739FB00DEA
:101C4000A11D621F839FA00D611D221F749F33275A
:101C5000A00D611D231F849F600D211D822F762FF3
:101C60006A2F11249F5750408AF0E1F088234AF0F0
:101C7000EE0FFF1FBB1F661F771F881F915050403C
:101C8000A9F79E3F510570F00CCFA6CF5F3FECF354
:101C9000983EDCF3869577956795B795F795E79528
:101CA0009F5FC1F7FE2B880F911D9695879597F939
:101CB00008951F920F920FB60F9211242F933F9306
:101CC0008F939F93AF93BF938091C0019091C10177
:101CD000A091C201B091C3013091BF0123E0230F55
:101CE0002D3758F50196A11DB11D2093BF0180939A
:101CF000C0019093C101A093C201B093C301809130
:101D0000C4019091C501A091C601B091C70101968F
:101D1000A11DB11D8093C4019093C501A093C6017C
:101D2000B093C701BF91AF919F918F913F912F9138
:101D30000F900FBE0F901F90189526E8230F029664
:101D4000A11DB11DD2CF3FB7F8948091C4019091ED
:101D5000C501A091C601B091C70126B5A89B05C0D9
:101D60002F3F19F00196A11DB11D3FBFBA2FA92F1A
:101D7000982F8827BC01CD01620F711D811D911D17
:101D800042E0660F771F881F991F4A95D1F7089583
:101D9000789484B5826084BD84B5816084BD85B546
:101DA000826085BD85B5816085BDEEE6F0E080810D
:101DB00081608083E1E8F0E010828081826080832E
:101DC000808181608083E0E8F0E0808181608083B1
:101DD000E1EBF0E0808184608083E0EBF0E08081E3
:101DE00081608083EAE7F0E0808184608083808185
:101DF000826080838081816080838081806880832D
:101E00001092C10008958E3008F08E502091830109
:101E100090E4299F900111248770822B80937C008D
:101E200080917A00806480937A0080917A0086FDA8
:101E3000FCCF809178009091790008951F93CF9303
:101E4000DF93182FEB0161E07DD0209731F460E043
:101E5000812FDF91CF911F91B1C0CF3FD10511F4F8
:101E600061E0F6CFE12FF0E0E859FF4FE491E33075
:101E700031F140F4E130B1F0E230E1F0C038D105A9
:101E80007CF7E5CFE73029F1E83059F1E430B1F7DC
:101E900080918000806280938000D0938B00C093FB
:101EA0008A0004C084B5806884BDC7BDDF91CF912E
:101EB0001F91089584B5806284BDC8BDF7CF80911D
:101EC0008000806880938000D0938900C093880050
:101ED000EDCF8091B00080688093B000C093B300D4
:101EE000E5CF8091B00080628093B000C093B400D1
:101EF000DDCF833081F028F4813099F08230A9F071
:101F000008958730A9F08830C9F08430B1F4809109
:101F100080008F7D03C0809180008F778093800048
:101F2000089584B58F7784BD089584B58F7DFBCFE8
:101F30008091B0008F778093B00008958091B000B9
:101F40008F7DF9CFCF93DF9390E0FC01E458FF4FF2
:101F5000249180579F4FFC0184918823C9F090E021
:101F6000880F991FFC01E854FF4FA591B491FC0123
:101F7000E255FF4FC591D49161110DC09FB7F89400
:101F80008C91209582238C938881282328839FBF5E
:101F9000DF91CF910895623051F49FB7F8943C914E
:101FA000822F809583238C93E8812E2BEFCF8FB7E0
:101FB000F894EC912E2B2C938FBFEACF1F93CF93E5
:101FC000DF93282F30E0F901E859FF4F8491F901A0
:101FD000E458FF4FD491F901E057FF4FC491CC234F
:101FE000A1F0162F811185DFEC2FF0E0EE0FFF1F1F
:101FF000E255FF4FA591B4918FB7F894EC91111170
:1020000008C0D095DE23DC938FBFDF91CF911F9165
:102010000895DE2BF8CFCF93DF93282F30E0F9011E
:10202000E859FF4F8491F901E458FF4FD491F90129
:10203000E057FF4FC491CC2399F081115ADFEC2F68
:10204000F0E0EE0FFF1FEC55FF4FA591B491EC911E
:10205000ED2381E090E009F480E0DF91CF910895D5
:1020600080E090E0FACFFC01918D228D892F90E0E5
:10207000805C9F4F821B91098F7399270895FC0103
:10208000918D828D981731F0828DE80FF11D858D2D
:1020900090E008958FEF9FEF0895FC01918D828D60
:1020A000981761F0A28DAE0FBF2FB11D5D968C9178
:1020B000928D9F5F9F73928F90E008958FEF9FEFB7
:1020C0000895FC01538D448D252F30E0842F90E03E
:1020D000821B930B541710F0CF9608950197089523
:1020E000FC01A48DA80FB92FB11DA35ABF4F2C918D
:1020F000848D90E001968F739927848FA689B78984
:102100002C93A089B1898C91837080648C93938D7A
:10211000848D981306C00288F389E02D80818F7D1D
:1021200080830895CF93DF93EC01888D8823B1F0ED
:10213000AA89BB89E889F9898C9185FD03C08081D2
:1021400086FD0CC00FB607FCF7CF8C9185FFF2CF50
:10215000808185FFEDCFCE01C3DFEACFDF91CF9144
:102160000895EF92FF920F931F93CF93DF93EC01AB
:1021700081E0888F9B8D8C8D98131AC0E889F9892E
:10218000808185FF15C09FB7F894EE89FF89608331
:10219000E889F98980818370806480839FBF81E0B2
:1021A00090E0DF91CF911F910F91FF90EF900895F4
:1021B000F62E0B8D10E00F5F1F4F0F731127E02ECF
:1021C0008C8D8E110BC00FB607FCFACFE889F98908
:1021D000808185FFF5CFCE0183DFF2CFEB8DEC0F51
:1021E000FD2FF11DE35AFF4FF0829FB7F8940B8F3C
:1021F000EA89FB8980818062D0CFCF92DF92EF9213
:10220000FF921F93CF93DF93EC016A017B01122FA2
:10221000E889F98982E08083C11481EED806E1045F
:10222000F10499F060E079E08DE390E0A701960178
:10223000F5D02150310941095109569547953795F7
:102240002795211580E1380790F0E889F9891082F7
:1022500060E874E88EE190E0A7019601DFD021509C
:102260003109410951095695479537952795EC85D0
:10227000FD853083EE85FF852083188EEC89FD89EE
:102280001083EA89FB89808180618083EA89FB89E8
:10229000808188608083EA89FB898081806880836F
:1022A000EA89FB8980818F7D8083DF91CF911F91A7
:1022B000FF90EF90DF90CF9008951F920F920FB68E
:1022C0000F9211242F938F939F93EF93FF93E0919D
:1022D000D801F091D9018081E091DE01F091DF0118
:1022E00082FD1BC090818091E1018F5F8F732091EF
:1022F000E201821741F0E091E101F0E0E853FE4F86
:10230000958F8093E101FF91EF919F918F912F9194
:102310000F900FBE0F901F9018958081F4CF1F92E1
:102320000F920FB60F9211242F933F934F935F9309
:102330006F937F938F939F93AF93BF93EF93FF938D
:1023400088EC91E0CDDEFF91EF91BF91AF919F912D
:102350008F917F916F915F914F913F912F910F904E
:102360000FBE0F901F901895E8ECF1E013821282D7
:1023700088EE93E0A0E0B0E084839583A683B783E2
:102380008AE891E09183808385EC90E0958784874B
:1023900084EC90E09787868780EC90E0918B808B2F
:1023A00081EC90E0938B828B82EC90E0958B848B18
:1023B00086EC90E0978B868B118E128E138E148E86
:1023C0000895AF92BF92CF92DF92EF92FF920F9358
:1023D0001F93CF93DF936C017B018B01040F151FBB
:1023E000EB015E01AE18BF08C017D10759F0699123
:1023F000D601ED91FC910190F081E02DC601099587
:10240000892B79F7C501DF91CF911F910F91FF9033
:10241000EF90DF90CF90BF90AF900895A1E21A2E79
:10242000AA1BBB1BFD010DC0AA1FBB1FEE1FFF1F78
:10243000A217B307E407F50720F0A21BB30BE40BC8
:10244000F50B661F771F881F991F1A9469F760950F
:102450007095809590959B01AC01BD01CF010895C9
:10246000DF93CF931F930F939A9DF02D219FF00D33
:102470008B9DF00D8A9DE02DF10D039FF00D029FC5
:10248000E00DF11D4E9DE00DF11D5E9DF00D4F9D87
:10249000F00D7F936F93BF92AF925F934F93D501EF
:1024A0003ED08B01AC01D7013AD0EB01E80FF91F08
:1024B000D6011ED02F913F91D60131D0C60FD71F24
:1024C000E81FF91FAF91BF9113D02F913F9127D0F3
:1024D000C60FD71FE81FF91FD60121D0E60FF71F3F
:1024E0009801BE01CF010F911F91CF91DF91089507
:1024F00016D0460F571FC81FD91F08F431960895EC
:102500002A153B054C055D056E057F058007910783
:102510000895EE0FFF1F0590F491E02D0994A29FFE
:10252000B001B39FC001A39F700D811D1124911DA7
:10253000B29F700D811D1124911D0895F894FFCF55
:10254000000080BF000080BF000080BFCDCCCC3D2C
:102550000000803F000000000820803AABAAAA3E9D
:10256000000070420000204200007F430000000095
:10257000000000FE0100000000000000000000005C
:102580000000000000000066F1F0F03E00000020B6
:10259000420000A0420000004000000000000000D7
:1025A00040000000000000004000000040000080EB
:1025B000400000803F000000400000803F0100001C
:1025C00001000101AA0100000000B110E111611039
:0825D000921033104D103F1072
:00000001FF
